{"abi":[{"type":"constructor","inputs":[{"name":"initialOwner","type":"address","internalType":"address"}],"stateMutability":"nonpayable"},{"type":"function","name":"cidRegistered","inputs":[{"name":"","type":"string","internalType":"string"}],"outputs":[{"name":"","type":"bool","internalType":"bool"}],"stateMutability":"view"},{"type":"function","name":"cidsByOwner","inputs":[{"name":"","type":"address","internalType":"address"},{"name":"","type":"uint256","internalType":"uint256"}],"outputs":[{"name":"","type":"string","internalType":"string"}],"stateMutability":"view"},{"type":"function","name":"getAssetByCid","inputs":[{"name":"cid","type":"string","internalType":"string"}],"outputs":[{"name":"","type":"tuple","internalType":"struct ProvenanceLedger.AssetRecord","components":[{"name":"owner","type":"address","internalType":"address"},{"name":"timestamp","type":"uint256","internalType":"uint256"},{"name":"assetType","type":"string","internalType":"string"},{"name":"name","type":"string","internalType":"string"},{"name":"description","type":"string","internalType":"string"},{"name":"filecoinCid","type":"string","internalType":"string"},{"name":"metadataCid","type":"string","internalType":"string"},{"name":"sourceAssetCid","type":"string","internalType":"string"},{"name":"exists","type":"bool","internalType":"bool"}]}],"stateMutability":"view"},{"type":"function","name":"getAssetsByOwner","inputs":[{"name":"owner","type":"address","internalType":"address"}],"outputs":[{"name":"","type":"string[]","internalType":"string[]"}],"stateMutability":"view"},{"type":"function","name":"owner","inputs":[],"outputs":[{"name":"","type":"address","internalType":"address"}],"stateMutability":"view"},{"type":"function","name":"payForService","inputs":[{"name":"_serviceType","type":"string","internalType":"string"},{"name":"_paymentNonce","type":"string","internalType":"string"}],"outputs":[],"stateMutability":"payable"},{"type":"function","name":"recordsByCid","inputs":[{"name":"","type":"string","internalType":"string"}],"outputs":[{"name":"owner","type":"address","internalType":"address"},{"name":"timestamp","type":"uint256","internalType":"uint256"},{"name":"assetType","type":"string","internalType":"string"},{"name":"name","type":"string","internalType":"string"},{"name":"description","type":"string","internalType":"string"},{"name":"filecoinCid","type":"string","internalType":"string"},{"name":"metadataCid","type":"string","internalType":"string"},{"name":"sourceAssetCid","type":"string","internalType":"string"},{"name":"exists","type":"bool","internalType":"bool"}],"stateMutability":"view"},{"type":"function","name":"registerAsset","inputs":[{"name":"ownerAddress","type":"address","internalType":"address"},{"name":"assetType","type":"string","internalType":"string"},{"name":"name","type":"string","internalType":"string"},{"name":"description","type":"string","internalType":"string"},{"name":"filecoinCid","type":"string","internalType":"string"},{"name":"metadataCid","type":"string","internalType":"string"},{"name":"sourceAssetCid","type":"string","internalType":"string"}],"outputs":[],"stateMutability":"nonpayable"},{"type":"function","name":"renounceOwnership","inputs":[],"outputs":[],"stateMutability":"nonpayable"},{"type":"function","name":"serviceFee","inputs":[],"outputs":[{"name":"","type":"uint256","internalType":"uint256"}],"stateMutability":"view"},{"type":"function","name":"setServiceFee","inputs":[{"name":"_newFee","type":"uint256","internalType":"uint256"}],"outputs":[],"stateMutability":"nonpayable"},{"type":"function","name":"transferOwnership","inputs":[{"name":"newOwner","type":"address","internalType":"address"}],"outputs":[],"stateMutability":"nonpayable"},{"type":"function","name":"withdrawFees","inputs":[],"outputs":[],"stateMutability":"nonpayable"},{"type":"event","name":"AssetRegistered","inputs":[{"name":"owner","type":"address","indexed":true,"internalType":"address"},{"name":"timestamp","type":"uint256","indexed":false,"internalType":"uint256"},{"name":"name","type":"string","indexed":false,"internalType":"string"},{"name":"assetType","type":"string","indexed":false,"internalType":"string"},{"name":"filecoinCid","type":"string","indexed":false,"internalType":"string"}],"anonymous":false},{"type":"event","name":"OwnershipTransferred","inputs":[{"name":"previousOwner","type":"address","indexed":true,"internalType":"address"},{"name":"newOwner","type":"address","indexed":true,"internalType":"address"}],"anonymous":false},{"type":"event","name":"PaymentReceived","inputs":[{"name":"payer","type":"address","indexed":true,"internalType":"address"},{"name":"amountPaid","type":"uint256","indexed":false,"internalType":"uint256"},{"name":"serviceType","type":"string","indexed":false,"internalType":"string"},{"name":"paymentNonce","type":"string","indexed":false,"internalType":"string"}],"anonymous":false},{"type":"error","name":"OwnableInvalidOwner","inputs":[{"name":"owner","type":"address","internalType":"address"}]},{"type":"error","name":"OwnableUnauthorizedAccount","inputs":[{"name":"account","type":"address","internalType":"address"}]}],"bytecode":{"object":"0x608060405234801562000010575f80fd5b5060405162001c9e38038062001c9e833981016040819052620000339162000103565b806001600160a01b03811662000069575f604051631e4fbdf760e01b81526004016200006091906200013e565b60405180910390fd5b62000074816200007c565b50506200014e565b5f80546001600160a01b038381166001600160a01b0319831681178455604051919092169283917f8be0079c531659141344cd1fd0a4f28419497f9722a3daafe3b4186f6b6457e09190a35050565b5f6001600160a01b0382165b92915050565b620000e881620000cb565b8114620000f3575f80fd5b50565b8051620000d781620000dd565b5f602082840312156200011857620001185f80fd5b5f620001258484620000f6565b949350505050565b6200013881620000cb565b82525050565b60208101620000d782846200012d565b611b42806200015c5f395ff3fe6080604052600436106100bf575f3560e01c8063715018a61161007c578063b027c41011610057578063b027c410146101e5578063c3fc772b14610211578063d3dea09b14610245578063f2fde38b1461028c575f80fd5b8063715018a61461018b5780638abdf5aa1461019f5780638da5cb5b146101c1575f80fd5b806313636503146100c3578063276f0934146100e4578063476343ee1461011957806351a833c71461012d5780635cdf76f8146101405780636ca5e6651461015f575b5f80fd5b3480156100ce575f80fd5b506100e26100dd3660046111a6565b6102ab565b005b3480156100ef575f80fd5b506101036100fe3660046112db565b610525565b60405161011091906113c2565b60405180910390f35b348015610124575f80fd5b506100e261060f565b6100e261013b3660046113d3565b61066f565b34801561014b575f80fd5b506100e261015a366004611452565b610719565b34801561016a575f80fd5b5061017e610179366004611470565b610726565b60405161011091906114a0565b348015610196575f80fd5b506100e26107d7565b3480156101aa575f80fd5b506101b460035481565b60405161011091906114b9565b3480156101cc575f80fd5b505f546001600160a01b031660405161011091906114d0565b3480156101f0575f80fd5b506102046101ff3660046114de565b6107ea565b60405161011091906115f6565b34801561021c575f80fd5b5061023061022b3660046114de565b610c3d565b60405161011099989796959493929190611607565b348015610250575f80fd5b5061027f61025f3660046114de565b805160208183018101805160048252928201919093012091525460ff1681565b60405161011091906116b7565b348015610297575f80fd5b506100e26102a63660046112db565b610fc4565b6102b3611001565b5f8351116102dc5760405162461bcd60e51b81526004016102d3906116f1565b60405180910390fd5b6004836040516102ec9190611722565b9081526040519081900360200190205460ff161561031c5760405162461bcd60e51b81526004016102d390611759565b6001600160a01b0387166103425760405162461bcd60e51b81526004016102d39061179c565b5f604051806101200160405280896001600160a01b03168152602001428152602001888152602001878152602001868152602001858152602001848152602001838152602001600115158152509050806001856040516103a29190611722565b9081526040805160209281900383019020835181546001600160a01b0319166001600160a01b0390911617815591830151600183015582015160028201906103ea9082611887565b50606082015160038201906103ff9082611887565b50608082015160048201906104149082611887565b5060a082015160058201906104299082611887565b5060c0820151600682019061043e9082611887565b5060e082015160078201906104539082611887565b5061010091909101516008909101805460ff19169115159190911790556001600160a01b0388165f908152600260209081526040822080546001810182559083529120016104a18582611887565b5060016004856040516104b49190611722565b908152604051908190036020018120805492151560ff19909316929092179091556001600160a01b038916907ffd8bf7a9e6a5f7fa9499e8e61db32cce7a0d2a1e56d0812ba572da7e831194ad906105139042908a908c908a90611947565b60405180910390a25050505050505050565b6001600160a01b0381165f908152600260209081526040808320805482518185028101850190935280835260609492939192909184015b82821015610604578382905f5260205f20018054610579906117c0565b80601f01602080910402602001604051908101604052809291908181526020018280546105a5906117c0565b80156105f05780601f106105c7576101008083540402835291602001916105f0565b820191905f5260205f20905b8154815290600101906020018083116105d357829003601f168201915b50505050508152602001906001019061055c565b505050509050919050565b610617611001565b47806106355760405162461bcd60e51b81526004016102d3906119c3565b5f80546040516001600160a01b039091169183156108fc02918491818181858888f1935050505015801561066b573d5f803e3d5ffd5b5050565b60035434146106905760405162461bcd60e51b81526004016102d390611a06565b5f8251116106b05760405162461bcd60e51b81526004016102d390611a49565b5f8151116106d05760405162461bcd60e51b81526004016102d390611a8c565b336001600160a01b03167f25f3ac702ad69406c1a408e457df3b1d43ef14ca2db0f3bca712fc1c0486326734848460405161070d93929190611a9c565b60405180910390a25050565b610721611001565b600355565b6002602052815f5260405f20818154811061073f575f80fd5b905f5260205f20015f91509150508054610758906117c0565b80601f0160208091040260200160405190810160405280929190818152602001828054610784906117c0565b80156107cf5780601f106107a6576101008083540402835291602001916107cf565b820191905f5260205f20905b8154815290600101906020018083116107b257829003601f168201915b505050505081565b6107df611001565b6107e85f61102d565b565b6108416040518061012001604052805f6001600160a01b031681526020015f81526020016060815260200160608152602001606081526020016060815260200160608152602001606081526020015f151581525090565b6004826040516108519190611722565b9081526040519081900360200190205460ff166108805760405162461bcd60e51b81526004016102d390611afc565b6001826040516108909190611722565b9081526040805191829003602090810183206101208401835280546001600160a01b0316845260018101549184019190915260028101805491928401916108d6906117c0565b80601f0160208091040260200160405190810160405280929190818152602001828054610902906117c0565b801561094d5780601f106109245761010080835404028352916020019161094d565b820191905f5260205f20905b81548152906001019060200180831161093057829003601f168201915b50505050508152602001600382018054610966906117c0565b80601f0160208091040260200160405190810160405280929190818152602001828054610992906117c0565b80156109dd5780601f106109b4576101008083540402835291602001916109dd565b820191905f5260205f20905b8154815290600101906020018083116109c057829003601f168201915b505050505081526020016004820180546109f6906117c0565b80601f0160208091040260200160405190810160405280929190818152602001828054610a22906117c0565b8015610a6d5780601f10610a4457610100808354040283529160200191610a6d565b820191905f5260205f20905b815481529060010190602001808311610a5057829003601f168201915b50505050508152602001600582018054610a86906117c0565b80601f0160208091040260200160405190810160405280929190818152602001828054610ab2906117c0565b8015610afd5780601f10610ad457610100808354040283529160200191610afd565b820191905f5260205f20905b815481529060010190602001808311610ae057829003601f168201915b50505050508152602001600682018054610b16906117c0565b80601f0160208091040260200160405190810160405280929190818152602001828054610b42906117c0565b8015610b8d5780601f10610b6457610100808354040283529160200191610b8d565b820191905f5260205f20905b815481529060010190602001808311610b7057829003601f168201915b50505050508152602001600782018054610ba6906117c0565b80601f0160208091040260200160405190810160405280929190818152602001828054610bd2906117c0565b8015610c1d5780601f10610bf457610100808354040283529160200191610c1d565b820191905f5260205f20905b815481529060010190602001808311610c0057829003601f168201915b50505091835250506008919091015460ff16151560209091015292915050565b8051602081830181018051600180835293830192909401919091209290528154908201546002830180546001600160a01b03909316939192610c7e906117c0565b80601f0160208091040260200160405190810160405280929190818152602001828054610caa906117c0565b8015610cf55780601f10610ccc57610100808354040283529160200191610cf5565b820191905f5260205f20905b815481529060010190602001808311610cd857829003601f168201915b505050505090806003018054610d0a906117c0565b80601f0160208091040260200160405190810160405280929190818152602001828054610d36906117c0565b8015610d815780601f10610d5857610100808354040283529160200191610d81565b820191905f5260205f20905b815481529060010190602001808311610d6457829003601f168201915b505050505090806004018054610d96906117c0565b80601f0160208091040260200160405190810160405280929190818152602001828054610dc2906117c0565b8015610e0d5780601f10610de457610100808354040283529160200191610e0d565b820191905f5260205f20905b815481529060010190602001808311610df057829003601f168201915b505050505090806005018054610e22906117c0565b80601f0160208091040260200160405190810160405280929190818152602001828054610e4e906117c0565b8015610e995780601f10610e7057610100808354040283529160200191610e99565b820191905f5260205f20905b815481529060010190602001808311610e7c57829003601f168201915b505050505090806006018054610eae906117c0565b80601f0160208091040260200160405190810160405280929190818152602001828054610eda906117c0565b8015610f255780601f10610efc57610100808354040283529160200191610f25565b820191905f5260205f20905b815481529060010190602001808311610f0857829003601f168201915b505050505090806007018054610f3a906117c0565b80601f0160208091040260200160405190810160405280929190818152602001828054610f66906117c0565b8015610fb15780601f10610f8857610100808354040283529160200191610fb1565b820191905f5260205f20905b815481529060010190602001808311610f9457829003601f168201915b5050506008909301549192505060ff1689565b610fcc611001565b6001600160a01b038116610ff5575f604051631e4fbdf760e01b81526004016102d391906114d0565b610ffe8161102d565b50565b5f546001600160a01b031633146107e8573360405163118cdaa760e01b81526004016102d391906114d0565b5f80546001600160a01b038381166001600160a01b0319831681178455604051919092169283917f8be0079c531659141344cd1fd0a4f28419497f9722a3daafe3b4186f6b6457e09190a35050565b5f6001600160a01b0382165b92915050565b6110978161107c565b8114610ffe575f80fd5b80356110888161108e565b634e487b7160e01b5f52604160045260245ffd5b601f19601f830116810181811067ffffffffffffffff821117156110e6576110e66110ac565b6040525050565b5f6110f760405190565b905061110382826110c0565b919050565b5f67ffffffffffffffff821115611121576111216110ac565b601f19601f83011660200192915050565b82818337505f910152565b5f61114f61114a84611108565b6110ed565b905082815260208101848484011115611169576111695f80fd5b611174848285611132565b509392505050565b5f82601f83011261118e5761118e5f80fd5b813561119e84826020860161113d565b949350505050565b5f805f805f805f60e0888a0312156111bf576111bf5f80fd5b5f6111ca8a8a6110a1565b975050602088013567ffffffffffffffff8111156111e9576111e95f80fd5b6111f58a828b0161117c565b965050604088013567ffffffffffffffff811115611214576112145f80fd5b6112208a828b0161117c565b955050606088013567ffffffffffffffff81111561123f5761123f5f80fd5b61124b8a828b0161117c565b945050608088013567ffffffffffffffff81111561126a5761126a5f80fd5b6112768a828b0161117c565b93505060a088013567ffffffffffffffff811115611295576112955f80fd5b6112a18a828b0161117c565b92505060c088013567ffffffffffffffff8111156112c0576112c05f80fd5b6112cc8a828b0161117c565b91505092959891949750929550565b5f602082840312156112ee576112ee5f80fd5b5f61119e84846110a1565b5f5b838110156113135781810151838201526020016112fb565b50505f910152565b5f611324825190565b80845260208401935061133b8185602086016112f9565b601f01601f19169290920192915050565b5f611357838361131b565b9392505050565b5f611367825190565b808452602084019350836020820285016113818560200190565b805f5b858110156113b5578484038952815161139d858261134c565b94506020830160209a909a0199925050600101611384565b5091979650505050505050565b60208082528101611357818461135e565b5f80604083850312156113e7576113e75f80fd5b823567ffffffffffffffff811115611400576114005f80fd5b61140c8582860161117c565b925050602083013567ffffffffffffffff81111561142b5761142b5f80fd5b6114378582860161117c565b9150509250929050565b80611097565b803561108881611441565b5f60208284031215611465576114655f80fd5b5f61119e8484611447565b5f8060408385031215611484576114845f80fd5b5f61148f85856110a1565b925050602061143785828601611447565b60208082528101611357818461131b565b805b82525050565b6020810161108882846114b1565b6114b38161107c565b6020810161108882846114c7565b5f602082840312156114f1576114f15f80fd5b813567ffffffffffffffff81111561150a5761150a5f80fd5b61119e8482850161117c565b8015156114b3565b80515f9061012084019061153285826114c7565b50602083015161154560208601826114b1565b506040830151848203604086015261155d828261131b565b91505060608301518482036060860152611577828261131b565b91505060808301518482036080860152611591828261131b565b91505060a083015184820360a08601526115ab828261131b565b91505060c083015184820360c08601526115c5828261131b565b91505060e083015184820360e08601526115df828261131b565b915050610100830151611174610100860182611516565b60208082528101611357818461151e565b6101208101611616828c6114c7565b611623602083018b6114b1565b8181036040830152611635818a61131b565b90508181036060830152611649818961131b565b9050818103608083015261165d818861131b565b905081810360a0830152611671818761131b565b905081810360c0830152611685818661131b565b905081810360e0830152611699818561131b565b90506116a9610100830184611516565b9a9950505050505050505050565b602081016110888284611516565b601381525f60208201724349442063616e6e6f7420626520656d70747960681b815291505b5060200190565b60208082528101611088816116c5565b5f61170a825190565b6117188185602086016112f9565b9290920192915050565b5f6113578284611701565b601681525f602082017510d25108185b1c9958591e481c9959da5cdd195c995960521b815291506116ea565b602080825281016110888161172d565b601c81525f602082017f4f776e657220616464726573732063616e6e6f74206265207a65726f00000000815291506116ea565b6020808252810161108881611769565b634e487b7160e01b5f52602260045260245ffd5b6002810460018216806117d457607f821691505b6020821081036117e6576117e66117ac565b50919050565b5f6110886117f78381565b90565b611803836117ec565b81545f1960089490940293841b1916921b91909117905550565b5f6118298184846117fa565b505050565b8181101561066b576118405f8261181d565b60010161182e565b601f821115611829575f818152602090206020601f8501048101602085101561186e5750805b6118806020601f86010483018261182e565b5050505050565b815167ffffffffffffffff8111156118a1576118a16110ac565b6118ab82546117c0565b6118b6828285611848565b6020601f8311600181146118e8575f84156118d15750858201515b5f19600886021c198116600286021786555061193f565b5f85815260208120601f198616915b8281101561191757888501518255602094850194600190920191016118f7565b8683101561193257848901515f19601f89166008021c191682555b6001600288020188555050505b505050505050565b6080810161195582876114b1565b8181036020830152611967818661131b565b9050818103604083015261197b818561131b565b9050818103606083015261198f818461131b565b9695505050505050565b601481525f60208201732737903332b2b9903a37903bb4ba34323930bb9760611b815291506116ea565b6020808252810161108881611999565b601d81525f602082017f496e636f7272656374207061796d656e7420616d6f756e742073656e74000000815291506116ea565b60208082528101611088816119d3565b601c81525f602082017f5365727669636520747970652063616e6e6f7420626520656d70747900000000815291506116ea565b6020808252810161108881611a16565b601d81525f602082017f5061796d656e74206e6f6e63652063616e6e6f7420626520656d707479000000815291506116ea565b6020808252810161108881611a59565b60608101611aaa82866114b1565b8181036020830152611abc818561131b565b90508181036040830152611ad0818461131b565b95945050505050565b600d81525f602082016c10d251081b9bdd08199bdd5b99609a1b815291506116ea565b6020808252810161108881611ad956fea264697066735822122017fb602fd0bb95ea116c136df1cde2497165be2a88ec7d1d7aa02a21133cf3f764736f6c63430008180033","linkReferences":{}},"methodIdentifiers":{"cidRegistered(string)":"d3dea09b","cidsByOwner(address,uint256)":"6ca5e665","getAssetByCid(string)":"b027c410","getAssetsByOwner(address)":"276f0934","owner()":"8da5cb5b","payForService(string,string)":"51a833c7","recordsByCid(string)":"c3fc772b","registerAsset(address,string,string,string,string,string,string)":"13636503","renounceOwnership()":"715018a6","serviceFee()":"8abdf5aa","setServiceFee(uint256)":"5cdf76f8","transferOwnership(address)":"f2fde38b","withdrawFees()":"476343ee"},"id":22}